:020000040800F2
:1000000088080020190200082102000823020008C5
:10001000250200082702000829020008000000004D
:100020000000000000000000000000002B0200089B
:100030002D020008000000002F020008CD06000875
:1000400033020008330200083302000833020008BC
:1000500033020008330200083302000833020008AC
:10006000330200083302000833020008330200089C
:10007000330200083302000833020008330200088C
:100080003302000833020008330200087109000837
:100090007509000833020008330200083302000823
:1000A000330200083302000833020008330200085C
:1000B000330200083302000833020008330200084C
:1000C000330200083302000833020008330200083C
:1000D000330200083302000833020008330200082C
:1000E000330200083302000833020008330200081C
:1000F000330200083302000833020008330200080C
:1001000000000000000000000000000033020008B2
:1001100033020008330200083302000833020008EB
:1001200033020008330200083302000833020008DB
:100130003302000833020008000000000000000045
:1001400033020008330200083302000800000000F8
:10015000000000000000000000000000000000009F
:100160000000000000000000330200083302000815
:100170003302000800000000000000000000000042
:100180000000000033020008DFF80CD002F05EFE31
:10019000004800479D0100088808002000F021F871
:1001A00000F018F800F019FC02F0EAFA00F02AF862
:1001B00000F016F800F01FFCF8E710B5002000F082
:1001C00082FB4FF47A6000F01FF8BDE81040002079
:1001D00000F07FBB10B500F06BFBBDE81040ECE712
:1001E000704710B500F0E6F800F00CF94FF47A60B3
:1001F00000F083FA00F00DFA00F036FBBDE8104085
:1002000000F060BA00F00BBB08B500900098411EEA
:100210000091FBD208BD0000064880470648004711
:10022000FEE7FEE7FEE7FEE7FEE7FEE7FEE7FEE7A6
:10023000FEE7FEE7CF020008890100080CB50022A6
:10024000019200925248016841F4803101604FF4FC
:10025000A043016801F4003100910199491C01910A
:10026000009911B901999942F3D10168890302D526
:100270000121009100E000920099012926D1454A10
:100280001221116041684160416841F400514160B0
:1002900041684160416821F47C114160416841F44A
:1002A000E8114160016841F08071016001688901D5
:1002B000FCD5416821F003014160416841F0020131
:1002C00041604168C1F381010229FAD10CBD10B52A
:1002D0003148016841F4700101602D48016841F026
:1002E0000101016041682D4A1140416001682C4ABA
:1002F00011400160016821F480210160416821F40E
:10030000FE014160C16A21F00F01C162016B254A03
:100310001140016300218160FFF790FF1E494FF0FB
:1003200000608039086010BD30B5194A506800F08F
:100330000C001D4B1D4900280FD05C1004280ED066
:1003400008280ED00B605068184AC0F30310121D25
:10035000105C0A68C2400A6030BD0B60F3E70C60B5
:10036000F1E7506800F47010536803F480330225FD
:1003700005EB904043B1D36A03F002035B1CB4FB6E
:10038000F3F343430B60DEE7094B58430860DAE7B9
:10039000001002400020024088ED00E00CC07FF811
:1003A000FFFFF6FECCFC00FF0024F400000000205C
:1003B00000127A0070471148006870470120104908
:1003C0004968C1F302214A0703D501F00301022065
:1003D00088400A490968B1FBF0F0704701200849DC
:1003E0004968C1F3C2214A0703D501F00301022085
:1003F000884002490968B1FBF0F070470000002016
:10040000001002405C48416941F4FC0141617047C1
:1004100002785A4951F822100A68407803234000B4
:1004200083409A430123834013430B607047027853
:10043000524951F822100A6840784300032098403E
:1004400082430A60704702784C4951F822100A68CA
:10045000407843000320984002430A607047417887
:10046000007801F00F0201219140444A52F8200027
:10047000018370474178007801F00F02012191401B
:100480003E4A52F820004183704701783B4A52F8B7
:1004900021100969427801209040014201D00120D9
:1004A000704700207047002900D0D8E7E2E710B578
:1004B0004378324C007801229A4054F820000029F9
:1004C00003D041681143416010BD416891434160D0
:1004D00010BD0278294951F822108A6840784300FB
:1004E0000320984082431043886070470278234974
:1004F00051F82210CA6840780323400083409A4391
:10050000012383401343CB60704702781B4951F8A5
:100510002210CA6840780323400083409A43022394
:1005200083401343CB607047F0B50278134F57F800
:100530002220166801F00F0345780F246907C90EC1
:100540008C40082D05D2156AA5438B402B431362BE
:1005500004E0556AA5438B402B4353624178032244
:1005600049008A40964302228A403243007857F875
:1005700020000260F0BD00000010024014000020C6
:1005800010B54C48FFF7B2FF05214A48FFF7CCFFF2
:1005900048480521801CFFF7C7FF46480521BDE8F4
:1005A0001040001DFFF7C0BF10B54248FFF730FFF5
:1005B0004048801CFFF73BFF3E48BDE81040001D4F
:1005C000FFF726BF10B53B48FFF731FF3948801CC5
:1005D000FFF72DFF3748BDE81040001DFFF727BF8C
:1005E000354908703549002808D0486820F4805003
:1005F0004860486840F4706048607047486840F45C
:1006000080504860486820F4706040F4E0604860C2
:10061000704710B52748801CFFF768FFFFF7D2FF2F
:100620002748816941F4805181610020FFF7D8FF9C
:100630002248016821F038010160016841F0200181
:100640000160016841F440710160016841F04401BA
:10065000016010BD10B507240021174A921C32F822
:100660001130834201D3CCB202E0491C0829F6DBE9
:100670001248016821F038010160016841EAC401B3
:10068000016010BD10B50446FFF7A8FEB0FBF4F002
:10069000BDE81040C0B2DDE707490A780749002AE3
:1006A00001D0C86000E008738868C007FCD0C86843
:1006B00080B270471C2F0008380000200030014035
:1006C0000010024062B6704772B6704710B5002144
:1006D0005C4B012401EB410003EB8000027A42B144
:1006E0008288521E1204120C828002D1C28882803B
:1006F0004472491C0F29EDDB10BD70B50446002C77
:1007000018D05148002545600460B4214D4802F0DE
:1007100092FBFFF750FEB0FBF4F0401EB0F1807F7B
:1007200008D24FF0E0214861484AF02010708D61F6
:100730000720086170BD30B50022424B02EB420435
:1007400053F824401CB1521C0F2AF7DB30BD02EBDA
:10075000420403EB8402012515720025557243F80B
:10076000241039490B68B3FBF0F0D08090804868C2
:10077000401C486030BD10B50022324B02EB4204F1
:1007800053F8244084420AD12F480068B0FBF1F0AE
:1007900002EB420103EB8101C880888010BD521C2E
:1007A0000F2AEBDB10BD0021264A01EB410352F872
:1007B0002330834206D101EB410102EB810101208C
:1007C00008727047491C0F29EFDB704700211D4A52
:1007D00001EB410352F82330834207D101EB410082
:1007E00002EB80000023037243727047491C0F29FB
:1007F000EEDB70470021134A01EB410352F823302E
:10080000834208D101EB410002EB8000002101602E
:10081000416081607047491C0F29EDDB704770B55E
:100820000024084D002604EB440005EB80014A7AC1
:100830001AB14E7255F820008047641C0F2CF2DB71
:1008400070BD0000440200204C00002023ED00E0B9
:100850000020154A52F8201011B1491E42F820100C
:10086000401C0A28F6DB704700200F4A002142F89E
:100870002010401C0A28FADB0C496420FFF75BBFFC
:100880000A2803D2084A1E2142F8201070470A287D
:1008900001D300207047044951F82000002801DDF1
:1008A0000120704700207047F8020020510800081E
:1008B00070B500240C4D05EB4400FFF7A9FD641C46
:1008C000012CF8DB70BD002802D10748FFF7C7BD37
:1008D0007047002802D10448FFF7CCBD70470029BB
:1008E00000D0F0E7F5E70000222F000810B5002047
:1008F00002F010FA0121BDE81040C80502F033BA39
:1009000008B514208DF8000001208DF801000021A9
:100910008DF802108DF80300684601F048FF08BD0D
:1009200010B5FFF7E3FF0E211348FFF7FDFD124856
:100930000E21801EFFF7F8FD0F48FFF7CAFD0E4895
:10094000801EFFF7C6FD00F05FFFBDE81040D7E74F
:100950000A490320086070470948817A074800293E
:1009600002D0052101607047012101607047704786
:1009700001F070B801F06EB8262F000824010020A5
:1009800048040020F7490A68518AF74B002802D032
:100990009868084470475888401A108200207047B1
:1009A0000021F24A01EB410312F81330834201D1D6
:1009B00048B27047491C0529F4DB4FF0FF307047FF
:1009C00000B5FFF7EDFF002805DBE84900EB40002C
:1009D00001EB400000BD002000BD10B51E21E34822
:1009E00002F029FAE1482821203002F024FABDE87B
:1009F0001040FFF795BFDE488069002800D000470F
:100A00007047DC480068052801D0002070470120AD
:100A100070477047D44A90605180D24800210068E6
:100A20004182D54981610020ACE770472DE9F0474C
:100A300081468A4616464846FFF7B2FF0446200024
:100A40002DD4CA4904EB440001EB4000858801F134
:100A5000200809F00F07AE420ED92A4651464846F3
:100A600001F0F6FC384601F00BFA48F834A008EB28
:100A7000C400C68085800FE03EB1324651464846EC
:100A800001F0E6FC384601F0FBF9002148F834108B
:100A900008EBC400C18081800120BDE8F087002000
:100AA000FBE77047B24800687047B148406870473C
:100AB000AF488068704710B5AD49496A002902D037
:100AC000BDE810400847ADA002F016FA002010BDA6
:100AD00070B5C02200210DE001EB410423181D79FF
:100AE0005B79A24E06F8145006EB44046280A380A2
:100AF0001A44491C03688B42EEDC70BD002807D005
:100B0000012808D0022809D0032809D00020704706
:100B10004FF4007070474FF48060704700207047BA
:100B20004FF4C06070472DE9F04100209049C9683A
:100B300000292BD0884707463846FFF7C9FF002F0A
:100B400060D0002001F01AF94FF40071002001F08C
:100B50002DF91021002001F03EF94021002001F084
:100B60009CFA8021002001F08CFA002001F0CAF9E3
:100B70007D481C3090F82C10002001F0D9FA00209C
:100B800001F090F90024DFF8E48138E0BDE8F0419D
:100B90007AA002F0B1B904EB4406F0190579807926
:100BA000FFF7ACFF0146284601F000F92946284628
:100BB00001F050FA280611D408EB460605F00F059F
:100BC0007188284601F069FAB188284601F0B0FA28
:100BD0004FF44051284601F014F90FE008EB4606A7
:100BE00005F00F057188284601F04BFAB1882846B8
:100BF00001F077FA2021284601F0EDF8641C3868EE
:100C0000A042C8DCBDE8F08110B5012200210468D3
:100C100009E001EB410303441B7903F00F039A42FF
:100C200000DA1A46491C8C42F3DC521CD0B210BDCB
:100C300010B54C4C002120688172C1724C48816A09
:100C40000020884700682168C0794872FFF76BFF71
:100C5000002000F02FFD47490120086010BDF8B5C5
:100C600000250095424CE16800295AD0606A0028AE
:100C700057D0A06A002854D0002088473A4E01215E
:100C80007170FFF7C1FF3070616A0020884706F17C
:100C90000C0102680A6080888880A16A0020884769
:100CA00006F1140102680A60808888802F4C3A4857
:100CB000483420600420A080FFF7F4FE6A4604F167
:100CC000200100F07FFD04F12000A060BDF80000CD
:100CD000A081FFF7EAFE6A4604F1600100F072FDB0
:100CE00004F160002061BDF80000A082FFF7E0FE83
:100CF0006A4604F1A00100F065FD04F1A000A061C6
:100D0000BDF80000A08317480068857200F060FFFE
:100D100001F092FBFFF707FFBDE8F840002000F06C
:100D2000C9BC16A002F0E8F8F8BD10B51B48807ADF
:100D3000002806D00E49096901B188470D490520F0
:100D4000086010BD0B490420086070477047704769
:100D5000002805D0012823D0022823D00120704785
:100D600000207047CC000020540000202003002009
:100D7000CC0100202401002085090008496E76611D
:100D80006C696420757362206465766963652063AD
:100D90006F6E666967210000282F00084804002054
:100DA000032070470220704710B50446207810F0E9
:100DB000600F664806D0016AD1B120468847BDE879
:100DC0001040C5E76178062910D1016B51B1A078B8
:100DD00088478288E1888A4200D211460068FFF77E
:100DE00019FE03E000210846FFF714FE002010BDA5
:100DF000022010BD56480068D6E755480068D3E782
:100E0000544900F023BA5349083100F01FBA504941
:100E10000968C978042901D3002070474E4A02EBC3
:100E2000C10100F013BA10B5484AD26A002A05D0B1
:100E3000904708B1002010BD022010BD09B102206A
:100E400010BD012801D9022010BD002010BD0028CE
:100E500001D0002070473E494020096808820020E8
:100E600070473B480068C0783A490C394860002018
:100E70007047002802D037480838704734490120AD
:100E8000096808820020704710B504462046FFF725
:100E900087FDC1B23048283800EBC103DA884AB177
:100EA0009B8850F83100D21AC1182046BDE8104086
:100EB00092B2BBE52548816B002903D02046BDE8EE
:100EC0001040084710BD2DE9F041ADF5007D044606
:100ED0001E4F4FF4405804F00F06786B002810D0D6
:100EE0006946204601F0C7FA85B24146304600F017
:100EF00088FF7B6B2A466946204698470DF5007DA2
:100F000080E60DF5007D41463046BDE8F04100F039
:100F100078BF8120B8E78220B6E78320B4E7842039
:100F2000B2E78520B0E78620AEE78720ACE7012056
:100F3000C9E70220C7E70320C5E70420C3E705206F
:100F4000C1E70620BFE70720BDE70000CC01002075
:100F5000CC000020600000206803002010B5F74C92
:100F6000002806D0F64800680068804720680A30EC
:100F700010BD216801200882002010BD10B5EF4887
:100F8000F04A00685278C178914203D882780AB951
:100F900082880AB1022010BD8172E9480068406869
:100FA0008047002010BD10B5E44C002806D0E4486E
:100FB00000688068804720680C3010BD21680120DF
:100FC0000882002010BD10B5DC4CDF4A2068126892
:100FD000C17892694079904721688A7A8AB118B9B4
:100FE000087908B9887808B1022010BDD448006893
:100FF000C068804720684179C172C17801730020C0
:1010000010BD022010BD10B5CC49002809680DD0D4
:10101000CE48002202800A7853060BD002F07F02ED
:10102000012A1FD0022A1FD0002010BD02200882F2
:10103000002010BD497A8A0604D5027842F00202E7
:10104000027003E0027802F0FD020270490604D546
:10105000017841F00101017025E0017801F0FE0105
:10106000017020E0B94810BD4A7902F00F01130663
:10107000B74A0CD502EB8101D1F8001CC1F3011174
:10108000012910D1017841F0010101700BE002EB60
:101090008101D1F8001CC1F30131012903D101788C
:1010A00041F001010170A648006800698047A74827
:1010B00010BD2DE9F041A1480068017801F07F01E1
:1010C000002904D0022908D00220BDE8F081417A2D
:1010D00001F0DF0141720020F7E7418809B9017989
:1010E00009B10220F1E7974B417921F08004984E35
:1010F0000A0607D506EB8402D2F8002CC2F30112CF
:10110000120106E006EB8402D2F8002CC2F3013291
:1011100012031D78A5420DD962B1807A50B108063C
:1011200012D506EB8400D0F8000CC0F301100128A2
:1011300002D024E00220C8E7E0B200F079FFE0B27C
:10114000302100F048FE1AE006EB8405D5F8000CCB
:10115000C0F30130012812D14BF68F7848F2800796
:101160009CB1E0B200F052FFD5F8000C00EA080094
:1011700080F4805080F400503843C5F8000C70486B
:1011800000684069804700209FE7724890F82C1063
:10119000002000F0CDFFD6F8000C00EA080080F433
:1011A000805080F400503843C6F8000CE7E770B573
:1011B00062480268517921F08004654B21F080007B
:1011C0000D0603EB800005D5D0F8003CC3F30113F6
:1011D0001B0104E0D0F8003CC3F301331B03594D5D
:1011E0002D78A54213D954888CB983B1927A72B103
:1011F000090648F280020CD5D0F8001C48F6BF73EF
:10120000194081F010011143C0F8001C0BE00220CE
:1012100070BDD0F8001C4BF68F73194081F48051DB
:101220001143C0F8001C46480068806980470020D0
:1012300070BD10B541480068417A41F0200141720B
:101240003F480068C0698047002010BD3B4A1368D2
:101250005A8A002802D00868104470478888801A8B
:101260001882002070472DE9F041344E3468103464
:101270002088A168002915D0A0B1A588854200D991
:101280000546A8B2884707462088401B2080608812
:1012900028446080002000F018FF0146AAB23846BA
:1012A00000F085FC20882C4F302538B12B492802CE
:1012B00008800021084600F014FF3D802088A188A6
:1012C000884203D3316803200872FEE618B1316802
:1012D00005200872F9E631680620087220480021CE
:1012E0000068204A80B2801C42F810103D80ECE675
:1012F0002DE9F047DFF84480D8F8001001F110051F
:1013000028880E7A144F4FF03009002801D1042E9E
:1013100004D0AC88A0422BD804262AE00B48801EBB
:10132000017809B30E4A002112680E4B92B2921C4A
:1013300043F81210A7F80090017039E0CC000020AB
:10134000D400002054000020D0000020C60000205F
:101350000050004070000020DC000020DA00002077
:10136000505C0040006000400726102038801FE0DD
:101370000226844200D90446A968A0B28847824662
:10138000002000F097FE0146A2B2504600F0FCFBA0
:10139000A1B2002000F0A5FE2888001B28806888E4
:1013A00020446880A7F80090F6494FF44050088028
:1013B000D8F800000672BDE8F08770B50220F24D43
:1013C00029684C780A78530606D002F07F0101297B
:1013D0002ED0022931D03AE0092C06D0052C07D0B6
:1013E000032C12D0012C18D031E0FFF7C7FD2EE0FE
:1013F000C8787F2805D8887818B9888808B9887A85
:1014000008B108203CE0002021E0CA78012A1ED162
:101410008988E1B9FFF70DFF19E0CA78012A16D1D2
:101420008A88A2B9497A890611D5FFF742FE0EE0F3
:101430000B2C0CD1FFF7C7FD09E0012C02D0032CC7
:1014400003D004E0FFF735FE01E0FFF7B0FE30B156
:10145000CE49E0B2096849698847032802D018B12B
:1014600008200DE009200BE00620C9490022096888
:10147000C84B89B2891C43F81120C74A302111801A
:101480002968087270BD2DE9F843BF4E3068427874
:101490000024BE4D062A296801D08AB117E00278DF
:1014A00052066ED18078012804D0022804D0032887
:1014B00004D066E0CC6964E00C6A62E04C6A60E0EB
:1014C000438823B9C388022B01D1037923B1082AA9
:1014D0003CD00A2A40D054E00278530601D18388D8
:1014E00033B102F07F02012A05D0022A0ED048E073
:1014F000AFF2ED4445E08A6940790021904720BB76
:101500003068807A08B3AFF201543AE0417901F0D3
:101510000F0001F070020B06A04907D501EB800116
:10152000D1F8001CC1F30111090106E001EB8001B3
:10153000D1F8001CC1F301310903994B1B78834298
:101540001FD912B909B1AFF241541AE00078400630
:1015500017D1AFF2F75414E0027802F07F02012AAB
:101560000FD1827A6AB142885AB902794AB9C288DF
:10157000012A06D18A6940790021904708B9AFF263
:10158000D95409274FF000083CB13068A0F8128008
:1015900084610020A047002006E0296830680969BE
:1015A00040788847032816D031680A8AA2F57F431D
:1015B000FF3B0DD0022811D082B10878000629D552
:1015C000C8880090009882420CD9009808821AE0DE
:1015D0000F72BDE8F88330680772FAE74FF0080031
:1015E0000872F6E70FD228686E4B90F82C00824202
:1015F00002D283F8008006E0B2FBF0F400FB142076
:1016000008B901201870286890F82C008882BDE87D
:10161000F8436DE6032008725A4900030880D8E7B2
:1016200010B5614890F82C10002000F081FD56485C
:101630000068007A082805D1524A41021180564AB2
:1016400010211180092801D0002010BD012010BDFB
:1016500038B54F48006880B2001D41004D48095A16
:1016600089B200EB41040094474D2868017A0929AA
:1016700013D0217801706178241D4170208800F01A
:10168000D0FE29684880A088A41D00F0CAFE296801
:101690008880A41C00942088C880286801210172D9
:1016A000C08820B1FFF7EFFEBDE83840B8E7FFF78C
:1016B00084FEF9E7F0B53A490E780021374F48F635
:1016C0008F7C48F280050BE0CBB207EB8302D2F8A7
:1016D000004C04EA0C041C432C43C2F8004C491C87
:1016E000B142F1D32A4940F08000091F0860F0BDE3
:1016F00010B5254C2068017A022909D0042907D0A9
:1017000006290AD0082021680872BDE8104087E742
:10171000FFF7EEFD2068007AF5E74178052909D149
:101720000178490606D1C078FFF7C4FF1F4800685A
:10173000006A804715480068806880470820E2E713
:1017400010B5114C2068007A02280DD004280BD067
:1017500003280BD0052809D007280CD008202168C1
:101760000872BDE810405BE70820F8E7FFF77BFD53
:101770002068007AF3E705480068C06880470820C1
:10178000EDE77047DA000020CC000020D0000020F8
:10179000505C004000600040DC0000200050004031
:1017A00054000020C400002070000020D40000205D
:1017B000002102E0491CC9B2401C0278002AF9D17C
:1017C0000846704770B505460C461646002D1AD0DF
:1017D0002846FFF7EDFF042101EB40003080207028
:1017E000032002226070002306E0501CC0B2A15406
:1017F0006D1C411CCAB2235429780029F5D1501C14
:10180000C0B2A354235470BD0649054808600222A3
:10181000027205484860054A8A6000680047000077
:1018200048040020CC00002070000020A000002010
:101830002DE9F84F002000904BF6BF7748F2800862
:101840007D4E7E4D40F68F7ADFF8F49148F60F7B9F
:101850007C4C2CE0088800F00F0089F8000078B379
:1018600004EB8001D1F8002C0092BDF80020120496
:101870000AD5D1F8002C02EA0A02C1F8002C7249FC
:10188000401E51F820008047BDF8000000060ED52C
:1018900099F8000004EB8001D1F8002C02EA0B0259
:1018A000C1F8002C6949401E51F820008047624869
:1018B00044300068664908800004CBD4BDE8F88F46
:1018C000FFE730682880288800F03000688028888A
:1018D00000F4405028803068384080F4005080F098
:1018E000200040EA080030600888C00620D4306834
:1018F00000EA0B003060FFF7FBFE306838402988B3
:10190000C90401D580F480502988890401D580F468
:1019100000506988C90601D580F0100069888906E1
:1019200001D580F0200080B240EA08003060C5E7B1
:1019300030680090BDF80000000520D5306800EA4E
:101940000A003060FFF784FE306838402988C904F7
:1019500001D580F480502988890401D580F4005095
:101960006988C90601D580F010006988890601D50B
:1019700080F0200080B240EA080030609EE7BDF8A9
:101980000000000493D5306800EA0A003060FFF7D9
:10199000D7FE306838402988C90401D580F48050CA
:1019A0002988890401D580F400506988C90601D5C9
:1019B00080F010006988890601D580F0200080B28F
:1019C00040EA0800306079E72DE9F0411A4C1C4EDE
:1019D0001C4F44341E4D28E047F6FF7020602888D5
:1019E00000F00F01317007EB8100D0F8002C92B2AB
:1019F00013040CD5D0F8002C40F68F731A40C0F8B1
:101A0000002C1148491E50F8210080470DE01206B5
:101A10000BD5D0F8002C48F60F731A40C0F8002CF4
:101A20000A48491E50F82100804720682880000499
:101A3000D2D4BDE8F0810000005C0040DA00002054
:101A4000C80000200050004008010020EC000020E9
:101A5000E20000202DE9F04188B00024454D2868BF
:101A6000454E70807088DFF81481B8F80010084087
:101A7000000401D5FFF7DCFE7088B8F800104FF6BF
:101A8000FF370840400503D52F603D484068804738
:101A90007188B8F800000140890402D54DF6FF7145
:101AA000296071880140C80405D54EF6FF70286092
:101AB000002000F0F1F87188B8F8000001408905B5
:101AC00005D54FF6FF5129603178491C3170718876
:101AD0000140C8054AD54FF6FF6028602548001D23
:101AE00000684FF00003000439D57068401C706036
:101AF0007068032834D91F48001F016809072FD4D4
:101B0000016889B2B1601F4A694602EB840CDCF8B7
:101B100000CC1FFA8CFC41F824C0641C082CF4D3C0
:101B2000B46844F00104B460B468A4B20460B4685A
:101B300024F00104B460B468A4B2046028684005CD
:101B4000FCD52F60002051F8204002EB8005A4B2A4
:101B5000C5F8004C401C0828F5D3736000E07360A2
:101B600008B00720BDE8F04100F096B808B0BDE825
:101B7000F0810000445C0040E0000020D80000201C
:101B8000700000200050004010B5521C52080F4B4E
:101B900003EB4101002A09D003784478801C43EA12
:101BA000042321F8043B521E002AF5D110BD521C1B
:101BB0005208064B03EB4101002A06D031F8043BE2
:101BC00020F8023B521E002AF8D170470060004006
:101BD00010B50120FEF7CBFE012154480160544AA4
:101BE00000210160031D19604FF4E0511180016074
:101BF000002010BD10B54D4C01202060211D00209B
:101C00000860FEF7B4FE03202060002010BD78B508
:101C1000002000210091454B19688DB24549464A84
:101C200001EB8004D4F8004CA4B242F82040401CE0
:101C30000828F5D345F48060186040F00100186072
:101C400020F001051D603948001D04686405FCD5BD
:101C50004FF6FF340460002052F8204001EB80066C
:101C6000A4B2C6F8004C401C0828F5D345F0080083
:101C70001860186880B240F00400186078BD10B594
:101C80002A4C206880B220F004002060FEF764FE39
:101C90004FF43740206010BD2DE9F041274C072854
:101CA00000D020702078254D0626052204271F49E4
:101CB000062838D2DFE800F0030C12171F286868E6
:101CC00010B12270BDE8F081FFF7D9FF2670F9E767
:101CD000FFF7D5FF277001206860F3E702206070EE
:101CE00003202070EEE76078401E60706078002866
:101CF000E8D12770E6E7086880B240F0100008607D
:101D000022700A206070DDE76078401E60706078A5
:101D10000028D7D1086880B220F010000860267033
:101D200000206860CEE72670CCE70000405C0040F1
:101D3000D80000200050004064040020280100204A
:101D4000F84908607047F748006880B27047F54965
:101D5000091D08607047F348001D006880B2704795
:101D6000F0480830006880B27047EE490C310860D6
:101D70007047EC480C30006880B27047E94920F0A9
:101D80000700103108607047E6481030006880B2E4
:101D90007047E54A02EB8000C0F8001C7047E2493A
:101DA00001EB8000D0F8000C80B270478200DE4862
:101DB0001044D0F8002C48F68F131A400A43C0F89C
:101DC000002C7047D84901EB8000D0F8000CC0F31C
:101DD0004120400270478200D3480244D2F8000CF0
:101DE00048F6BF731840CB0601D580F01000890675
:101DF00001D580F0200048F280010843C2F8000CB1
:101E000070478200C8480244D2F8000C4BF68F732A
:101E10001840CB0401D580F48050890401D580F4AA
:101E2000005048F280010843C2F8000C704700B52A
:101E300002460B461046FFF7B2FF9100BA4A012B4B
:101E40000A4406D0022B03D120F01000C2F8000C87
:101E500000BD20F48050C2F8000C00BDB24901EB77
:101E60008000D0F8000CC0F3011000017047AE49AB
:101E700001EB8000D0F8000CC0F301300003704784
:101E80008100A9480844D0F8001C48F6BF721140F0
:101E900081F0100181F0200148F280021143C0F866
:101EA000001C70478100A0480844D0F8001C4BF685
:101EB0008F72114081F4805181F4005148F2800208
:101EC0001143C0F8001C7047810097480844D0F8BF
:101ED000001C48F68F7241F48071114048F2800274
:101EE0001143C0F8001C704781008F480844D0F8A7
:101EF000001C48F68F62114048F280021143C0F87E
:101F0000001C7047810088480844D0F8001C48F63F
:101F10008F62114048F280021143C0F8001C7047E4
:101F2000810081480844D0F8001C48F68F7241F4C3
:101F30008071114048F280021143C0F8001C7047C4
:101F4000810079480844D0F8001C48F68F7241F4AB
:101F50008071114048F280021143C0F8001C7047A4
:101F6000810071480844D0F8001C48F68F62114087
:101F700048F280021143C0F8001C70476A4901EB27
:101F80008000D0F8000CC0F30110012800D0002020
:101F90007047654901EB8000D0F8000CC0F30130B8
:101FA000012800D00020704781005F480844D0F825
:101FB000001C40F68F721140C0F8001C7047810071
:101FC00059480844D0F8001C48F60F721140C0F878
:101FD000001C7047810054480844D0F8001C48F6A3
:101FE0008F7211404CF280021143C0F8001C704700
:101FF00081004D480844D0F8001C48F68F7211400B
:1020000048F2C0021143C0F8001C704781004648E6
:102010000844D0F8001C490409D5D0F8001C48F643
:102020008F7211404CF280021143C0F8001C7047BF
:1020300081003D480844D0F8001C490609D5D0F875
:10204000001C48F68F72114048F2C0021143C0F8DC
:10205000001C7047820034481044D0F8002C48F629
:102060008F731A400A4348F280010A43C0F8002CDB
:1020700070472D4901EB8000D0F8000C00F00F00F4
:102080007047284A21F001011032126892B202EB27
:10209000C000264A42F810107047224A21F0010180
:1020A0001032126892B202EBC000204A001D42F8C2
:1020B000101070471B491031096889B201EBC0004C
:1020C0001A4931F8100080B270471649103109687A
:1020D00089B201EBC0001549001D31F8100080B233
:1020E0007047104A1032126892B202EBC0000F4AD9
:1020F000801C42F8101070473E290AD94A09C906C7
:1021000001D1521E92B24FF4004141EA8221016096
:1021100070474A08C90701D0521C92B2910201606F
:1021200070470000405C00400050004000600040EC
:10213000BE4A126892B202EBC000BD4A801D02EB9B
:1021400040023E290AD94809C90601D1401E80B281
:102150004FF4004141EA80201060E1E74808C907D8
:1021600001D0401C80B280021060D9E7AF490968F5
:1021700089B201EBC000AE49801C31F81000C0F3F9
:102180000900CDE7A949096889B201EBC000A84957
:10219000801D31F81000C0F30900C1E730B521F00F
:1021A0000104A2490B689BB203EBC0035D00A04B86
:1021B000EC50096822F0010289B201EBC000001D59
:1021C00043F8102030BD994A21F00101126892B203
:1021D00002EBC000964A42F81010A1E7934A21F0A2
:1021E0000101126892B202EBC000914A001D42F850
:1021F000101095E78D49096889B201EBC0008C4940
:1022000031F8100080B28BE78849096889B201EB88
:10221000C0008749001D31F8100080B280E72DE929
:10222000F04F530954085D1E661CDFF80082DFF88A
:1022300000A24FF40049012902D002291DD024E058
:10224000D8F80070BFB207EBC007BF1C0AEB470C01
:102250003E2A09D91F465FEAC26B00D1AFB249EAF4
:102260008727CCF8007010E027465FEAC27B00D0D9
:10227000B7B2BF02CCF8007007E0D8F80070BFB268
:1022800007EBC007BF1C4AF8172001290BD0022911
:1022900007D1D8F8001089B201EBC000801D4AF8C0
:1022A0001020BDE8F08FD8F8001089B201EBC00013
:1022B000801D0AEB40003E2A06D9D10600D1ABB200
:1022C00049EA83210160ECE7D10700D0B4B2A10252
:1022D0000160E6E710B5554C554B012909D002299C
:1022E00006D1216889B201EBC000801C43F81020A0
:1022F00010BD216889B201EBC000801C03EB4001D6
:102300003E2A0AD95009D20601D1401E80B24FF4AC
:10231000004242EA8020086010BD5008D20701D078
:10232000401C80B28002086010BD10B53F4C404B8D
:10233000012909D0022906D1216889B201EBC00028
:10234000801D43F8102010BD216889B201EBC00048
:10235000801D03EB40013E2A0AD95009D20601D163
:10236000401E80B24FF4004242EA8020086010BD57
:102370005008D20701D0401C80B28002086010BD16
:102380002A49096889B201EBC0002949801C31F84B
:102390001000C0F30900C3E62449096889B201EBC3
:1023A000C0002349801D31F81000C0F30900B7E6D2
:1023B0001E490A6892B202EBC002921D53001C4AE9
:1023C0009B5A13F47C4F01D00120A9E6096889B219
:1023D00001EBC000801C32F81000800501D0022003
:1023E0009EE600209CE6134B48F68F7203EB8000BC
:1023F00001290AD0022907D1D0F8001C11404CF263
:1024000080021143C0F8001C8AE6D0F8001C11407D
:1024100048F2C0021143C0F8001C81E641EA0020E6
:102420007EE6C1B2000A40EA012079E6505C004035
:102430000060004000500040184900200860184922
:102440004FF4374008801549091F08600020704785
:1024500070B50E46144600F07F052846FFF72AFEA9
:102460000146A2B23046FFF78FFBA1B22846FFF724
:1024700038FE002070BD70B50E4600F07F0528467E
:10248000FFF780FE04462846FFF71FFE014622465E
:102490003046FFF78CFB204670BD0000445C0040D6
:1024A000D80000202B48704710B50178C1F34111C6
:1024B000012920D14178022918D003290CD0254ABE
:1024C0000C3A0A290ED00B2903D0FEF7AEFA0220EF
:1024D00010BD807810600EE01E4801210C38FEF718
:1024E00099FA08E04088000A506004E01948012188
:1024F0000838FEF78FFA002010BD70B504460D466F
:10250000FEF77FFA30B12A462146BDE870408120AF
:10251000FEF78CBA002070BD0E490C3988607047F8
:102520000D4870470D487047212803D0222803D05A
:102530000A4870470A4870470A48704710B508466D
:1025400004490C398B68002B01D0114698470020B4
:1025500010BD0000B80100208C0100209401002073
:102560009C010020A401002010B5FEF709F8524894
:10257000FDF775FF5048FDF74BFF4F48801CFDF7F6
:102580006EFF4D48801CFDF743FF4B48BDE81040EF
:10259000001DFDF74CBFFEF77FB810B5FEF77CF8C5
:1025A000C0B210BD10B5FF20FEF776F8C0B210BD66
:1025B00070B504460D4603E014F8010BFFF7EBFF7E
:1025C0006D1E681CF8D170BD10B53B48FDF752FF79
:1025D0003948801CFDF74EFF0120FDF715FE6424ED
:1025E00000E0641E2CB13448001DFDF74EFF0028AA
:1025F000F7D144B13048801CFDF731FF0120FDF7D1
:1026000003FE002010BD2C48801CFDF728FF2A483F
:10261000FDF725FF012010BD10B5642403E0FF2065
:10262000FFF7B9FF641E2CB12348001DFDF72DFFF5
:102630000028F4D0CCB1FF20FFF7ADFFFF20FFF75B
:10264000AAFFFF20FFF7A7FFFF20FFF7A4FFFF204F
:10265000FFF7A1FFFF20FFF79EFFFF20FFF79BFF83
:102660001548FDF7FCFE002010BD022010BD70B51E
:1026700004460D46FFF7A8FF08B1012070BD2946AA
:102680002046FFF795FFBDE87040C5E710B5FFF79E
:102690009BFF08B1002010BD012010BD10B5FFF751
:1026A00087FF012010BD10B5FFF7B6FF08B100206D
:1026B00010BD012010BD00002C2F000810B50446ED
:1026C000FFF7E4FF08B1012000E00020607010BDBA
:1026D00010B50446E01CA178FFF7E0FF0020607011
:1026E00010BD10B50446FFF7DEFF08B1012000E081
:1026F0000020607010BD10B504463C21E01C00F0C5
:102700009AFB0020607010BD30B591B005460120E5
:10271000FEF7B6F82C462278C2B1012A1AD0022A56
:102720001CD0032A1ED00222627001228DF80420E0
:102730005522E2703F2229460DF1050000F062FBB0
:102740003F2101A8FFF7D9FE11B030BD2046FFF7A9
:10275000D2FFEAE72046FFF7B1FFE6E72046FFF7A2
:10276000B7FFE2E72046FFF7BCFFDEE710B5012028
:10277000FEF78DF80146BDE810400020FEF7AFB827
:1027800010B506493C20FDF7D6FF0548FFF7C4FE0B
:10279000FFF7EAFEBDE81040FDF7F2BE6D27000826
:1027A000092700082A4908432A490860704770B57C
:1027B0000F23C27801260178002A1ED0254A12680C
:1027C00002F4E062C2F5E062120AC2F10404D340EE
:1027D0004578A54082781A402A43120101F1E02190
:1027E00081F80024007800F01F018E40400980002D
:1027F00000F1E020C0F8006170BD01F01F008640CC
:102800004809800000F1E020C0F8806170BD124AE4
:10281000114001430F48001F016070470D4A121D0F
:10282000002903D01168014311607047116881438A
:10283000116070474FF0E021042804D0086920F0AF
:10284000040008617047086940F00400086170479F
:102850000000FA050CED00E080FFFF1FF74801685B
:1028600041F0010101604168F54A11404160016891
:10287000F44A11400160016821F48021016041683F
:1028800021F4FE014160C16A6FF30D01C162016B69
:10289000ED4A11400163002181607047E749002241
:1028A0008A7088707047034600205909E34A00295E
:1028B0000CD001290CD004290CD0516A03F01F025E
:1028C000012393400B4200D0012070471168F5E7C7
:1028D000116AF3E75168F1E718B5002000904FF452
:1028E000A0441120FFF7DFFF0099491C00910099D7
:1028F000A14201D00028F4D01120FFF7D4FF08B185
:10290000012018BD002018BDCC4A116821F0F80143
:1029100041EAC00010607047CC4908607047C74961
:102920000A6A22F001020A620A6A22F004020A62BA
:102930000A6A02430A627047C0490A6A22F0180212
:102940000A620A6A02430A627047C1490860704716
:10295000BA4A536823F4741353605368084303431B
:1029600053607047B94908667047B44AD16A21F08C
:1029700002010143D1627047B449C8647047AF494E
:10298000C8717047AD4A516821F00301014351609D
:102990007047AA48406800F00C007047A74A516889
:1029A00021F0F001014351607047A44A516821F4BD
:1029B000E061014351607047A04A516821F46051C1
:1029C00041EAC000506070472DE9F0470022DFF86F
:1029D0006C82D8F8041001F00C019E4C002938D00C
:1029E0006310042937D0082937D00460D8F80410C0
:1029F00001F0F0010909984E775C016821FA07F5AA
:102A00004560D8F8043003F4E0631B0A16F803C0ED
:102A100025FA0CF38360D8F804C00CF4605C4FEA2C
:102A2000DC2C16F80C60F540C560D8F82CC00CF40E
:102A3000F87C4FEA1C1CDFF8209209F1100939F8E4
:102A40001CC05FEACC6A21D5B2FBFCFCC0F810C008
:102A50001DE00460CAE70360C8E7D8F8041001F479
:102A60007012D8F8041001F48031022505EB92426F
:102A700049B1D8F82C1001F00201491CB3FBF1F167
:102A80004A430260B2E775494A43FAE70161D8F860
:102A90002CC00CF4785C4FEA5C2C39F81CC05FEA5F
:102AA000CC6904D5B2FBFCFCC0F814C000E0416165
:102AB000D8F830C05FEACC6C01D4846100E0816159
:102AC000D8F830C05FEA8C6C01D4C46100E0C16109
:102AD000D8F830C05FEACC5C08D5914206D1BE423E
:102AE00004D14FEA420CC0F820C000E00562D8F8DB
:102AF00030C05FEA8C5C06D5914204D1BE4202D15F
:102B00005200426200E04562D8F8302096074FF448
:102B1000004211D0D8F8305005F00305012D0DD03A
:102B2000D8F8305005F00305022D09D0D8F8305000
:102B3000ED43AD0706D006E0856204E0816202E065
:102B4000826200E08462D8F8305015F4403F12D021
:102B5000D8F83050C5F30145012D0ED0D8F83050CB
:102B6000C5F30145022D0AD0D8F83050C5F3014510
:102B7000032D06D006E0C36204E0C16202E0C26237
:102B800000E0C462D8F8305015F4402F12D0D8F8C5
:102B90003050C5F38145012D0ED0D8F83050C5F323
:102BA0008145022D0AD0D8F83050C5F38145032D58
:102BB00006D006E0036304E0016302E0026300E084
:102BC0000463D8F8305015F4401F12D0D8F83050B4
:102BD000C5F30155012D0ED0D8F83050C5F301557D
:102BE000022D0AD0D8F83050C5F30155032D06D078
:102BF00006E0436304E0416302E0426300E04463B3
:102C0000D8F8305015F4400F14D0D8F83030C3F352
:102C10008153012B10D0D8F83010C1F38151022913
:102C20001ED0D8F83010C1F38151032900D184633C
:102C3000BDE8F0878363FBE78163F9E7001002409A
:102C400000C0FFF8FFFFF6FECCFC000F0000424280
:102C5000800442420024F4001402002000127A0092
:102C60008263E5E7020F6449002A04D0CA6A22F4AD
:102C70007852CA6203E0CA6A22F4F872CA62CA6A67
:102C80000243CA627047020F5B49002A04D00A6BF4
:102C900022F020020A6303E00A6B22F010020A63AA
:102CA0000A6B02430A637047020F5349002A04D09B
:102CB0000A6B22F400720A6303E00A6B22F480724A
:102CC0000A630A6B02430A637047020F4A49062AE5
:102CD0001CD2DFE802F01B03080D12170A6B22F06A
:102CE00003020A6312E00A6B22F440320A630DE029
:102CF0000A6B22F440220A6308E00A6B22F44012B5
:102D00000A6303E00A6B22F440020A630A6B02437F
:102D10000A63704739490860704737490A6A0243B5
:102D20000A6270473549091D0860704734490860D8
:102D300070473349091D086070472F4A002903D0A6
:102D40005169014351617047516981435161704735
:102D5000294A002903D09169014391617047916923
:102D6000814391617047244A002903D0D16901430E
:102D7000D1617047D1698143D16170471E4A0029F2
:102D800003D0916A014391627047916A81439162D5
:102D90007047194A002903D0D1680143D1607047B8
:102DA000D1688143D1607047134A002903D011696B
:102DB00001431161704711698143116170470E4AE7
:102DC000002903D0517A014351727047517A8143EF
:102DD000517270470848416A41F080714162704702
:102DE00001460020044A92680A4200D00120704740
:102DF000014988727047000000100240D80042422A
:102E00003C04424240EA01039B0703D009E008C9A1
:102E1000121F08C0042AFAD203E011F8013B00F89F
:102E2000013B521EF9D27047D2B201E000F8012BEB
:102E3000491EFBD270470022F6E710B513460A463A
:102E400004461946FFF7F0FF204610BD064C074D1B
:102E500006E0E06840F0010394E80700984710346A
:102E6000AC42F6D3FDF794F95C2F00087C2F0008E4
:102E700070B58C1810F8015B15F0070301D110F83C
:102E8000013B2A1106D110F8012B03E010F8016B69
:102E900001F8016B5B1EF9D12B0705D40023521EEC
:102EA0000DD401F8013BFAE710F8013BCB1A921C54
:102EB00003E013F8015B01F8015B521EF9D5A14252
:102EC000D8D3002070BD02E008C8121F08C1002A34
:102ED000FAD170477047002001E001C1121F002A9B
:102EE000FBD1704738B504468DF8000069460320D1
:102EF000ABBE204638BD000010B5044601E0FFF728
:102F0000F1FF14F8010B04490028F8D1BDE8104086
:102F10000A20FFF7E7BF000040020020000500067E
:102F200000070009000B000C040309040100010163
:102F3000010200004E796169434550726F67204677
:102F400033000000303030303030303030313144F8
:102F5000000000004E796168616861007C2F000804
:102F60000000002044020000702E0008C430000859
:102F70004402002044060000D62E00081184A24A14
:102F8000043009010203040607080912481A040460
:102F90001A08041A0C041A10041A1404D11A022371
:102FA0001A081B122012401A803D0126135F0C1BC9
:102FB000083104134D0D1B084F041AF5041AFB04C5
:102FC00013270E1B0801041A07041A0F044132408C
:102FD0001383171B082B2029080912041A451C010A
:102FE0002813130F1B0817041A1B041A1F041A2393
:102FF000041A27041A2B041A2F041A33041A37044C
:103000001A3B041A3F041A43041A4704C11B120155
:10301000F9199B15830410571702010203010617C3
:10302000FF0901A101151326FF28097508953F091D
:1030300001810206100D910295010901B102C0093A
:10304000022913010125E032090433020315092185
:103050001001140122211607058103402D020705E6
:1030600001071330013320121A630832291A6C0841
:1030700032201A4208F22129852E81400301405056
:103080007113542F1B0834041A4404CBA524B841EF
:103090001AA9141321251B082504411A29085A3D91
:1030A0000C011019DA2A04041D060708090E19700C
:1030B00012041A062B120A120C1210122012402AA5
:0430C0008017510024
:040000050800018965
:00000001FF
